{
  "contractName": "PiggyBank",
  "abi": [
    {
      "inputs": [],
      "stateMutability": "nonpayable",
      "type": "constructor"
    },
    {
      "inputs": [],
      "name": "getTotalAmount",
      "outputs": [
        {
          "internalType": "uint256",
          "name": "",
          "type": "uint256"
        }
      ],
      "stateMutability": "view",
      "type": "function",
      "constant": true
    },
    {
      "inputs": [],
      "name": "payMe",
      "outputs": [],
      "stateMutability": "payable",
      "type": "function",
      "payable": true
    },
    {
      "inputs": [],
      "name": "breakPiggyBank",
      "outputs": [],
      "stateMutability": "payable",
      "type": "function",
      "payable": true
    }
  ],
  "bytecode": "0x6080604052603c60005534801561001557600080fd5b5033600260006101000a81548173ffffffffffffffffffffffffffffffffffffffff021916908373ffffffffffffffffffffffffffffffffffffffff1602179055506000544261006591906100a9565b6003819055506100ff565b6000819050919050565b7f4e487b7100000000000000000000000000000000000000000000000000000000600052601160045260246000fd5b60006100b482610070565b91506100bf83610070565b9250827fffffffffffffffffffffffffffffffffffffffffffffffffffffffffffffffff038211156100f4576100f361007a565b5b828201905092915050565b6103aa8061010e6000396000f3fe6080604052600436106100345760003560e01c80633ba878d41461003957806365ac434114610043578063d997ccb31461006e575b600080fd5b610041610078565b005b34801561004f57600080fd5b50610058610187565b60405161006591906101c5565b60405180910390f35b610076610191565b005b3373ffffffffffffffffffffffffffffffffffffffff16600260009054906101000a900473ffffffffffffffffffffffffffffffffffffffff1673ffffffffffffffffffffffffffffffffffffffff1614610108576040517f08c379a00000000000000000000000000000000000000000000000000000000081526004016100ff9061023d565b60405180910390fd5b600354421161014c576040517f08c379a0000000000000000000000000000000000000000000000000000000008152600401610143906102cf565b60405180910390fd5b600260009054906101000a900473ffffffffffffffffffffffffffffffffffffffff1673ffffffffffffffffffffffffffffffffffffffff16ff5b6000600154905090565b34600160008282546101a3919061031e565b92505081905550565b6000819050919050565b6101bf816101ac565b82525050565b60006020820190506101da60008301846101b6565b92915050565b600082825260208201905092915050565b7f596f7520617265206e6f7420746865206f776e65722100000000000000000000600082015250565b60006102276016836101e0565b9150610232826101f1565b602082019050919050565b600060208201905081810360008301526102568161021a565b9050919050565b7f4e6f7420656e6f7567682074696d65206861732070617373656420746f20776960008201527f7468647261772074686520646f6e6174696f6e73000000000000000000000000602082015250565b60006102b96034836101e0565b91506102c48261025d565b604082019050919050565b600060208201905081810360008301526102e8816102ac565b9050919050565b7f4e487b7100000000000000000000000000000000000000000000000000000000600052601160045260246000fd5b6000610329826101ac565b9150610334836101ac565b9250827fffffffffffffffffffffffffffffffffffffffffffffffffffffffffffffffff03821115610369576103686102ef565b5b82820190509291505056fea2646970667358221220b8735766001139c3e52f436bc6506c3acbb3e1ba9e9d5658330c3d34146e1fef64736f6c634300080e0033",
  "immutableReferences": {},
  "source": "// SPDX-License-Identifier: GPL-3.0\n\npragma solidity >=0.7.0 <0.9.0;\n\ncontract PiggyBank {\n\n    uint minimumTimeWithdrawal = 1 minutes;\n\n    uint256 piggy;\n    address payable owner;\n    uint256 deadline;\n\n    constructor() {\n        owner = payable(address(msg.sender));\n        deadline = block.timestamp + minimumTimeWithdrawal;\n    }\n\n    modifier onlyOwner {\n        require(owner == msg.sender, \"You are not the owner!\");\n        _;\n    }\n    \n    function getTotalAmount() public view returns (uint256) {\n        return piggy;\n    }\n\n    function payMe() public payable{\n        piggy += msg.value;\n    }\n\n    function breakPiggyBank() public payable onlyOwner{\n        require(block.timestamp > deadline, \"Not enough time has passed to withdraw the donations\");\n        selfdestruct(owner);\n    }\n}",
  "sourcePath": "/Users/jeangatt/Documents/Learning/Smart-Contracts/eSkills-Blockchain-Course/smart-contract-coding-truffle-starter/backend/contracts/PiggyBank.sol",
  "compiler": {
    "name": "solc",
    "version": "0.8.14+commit.80d49f37.Emscripten.clang"
  },
  "schemaVersion": "3.4.7",
  "updatedAt": "2022-06-11T12:41:33.821Z",
  "networkType": "ethereum",
  "devdoc": {
    "kind": "dev",
    "methods": {},
    "version": 1
  },
  "userdoc": {
    "kind": "user",
    "methods": {},
    "version": 1
  }
}