{
  "contractName": "PiggyBank",
  "abi": [
    {
      "inputs": [],
      "stateMutability": "nonpayable",
      "type": "constructor"
    },
    {
      "inputs": [],
      "name": "piggy",
      "outputs": [
        {
          "internalType": "uint256",
          "name": "",
          "type": "uint256"
        }
      ],
      "stateMutability": "view",
      "type": "function",
      "constant": true
    },
    {
      "inputs": [],
      "name": "payMe",
      "outputs": [],
      "stateMutability": "payable",
      "type": "function",
      "payable": true
    },
    {
      "inputs": [],
      "name": "breakPiggyBank",
      "outputs": [],
      "stateMutability": "payable",
      "type": "function",
      "payable": true
    }
  ],
  "bytecode": "0x6080604052603c60005534801561001557600080fd5b5033600260006101000a81548173ffffffffffffffffffffffffffffffffffffffff021916908373ffffffffffffffffffffffffffffffffffffffff1602179055506000544261006591906100a9565b6003819055506100ff565b6000819050919050565b7f4e487b7100000000000000000000000000000000000000000000000000000000600052601160045260246000fd5b60006100b482610070565b91506100bf83610070565b9250827fffffffffffffffffffffffffffffffffffffffffffffffffffffffffffffffff038211156100f4576100f361007a565b5b828201905092915050565b6103a68061010e6000396000f3fe6080604052600436106100345760003560e01c80633ba878d414610039578063b5fdf28e14610043578063d997ccb31461006e575b600080fd5b610041610078565b005b34801561004f57600080fd5b50610058610187565b60405161006591906101c1565b60405180910390f35b61007661018d565b005b3373ffffffffffffffffffffffffffffffffffffffff16600260009054906101000a900473ffffffffffffffffffffffffffffffffffffffff1673ffffffffffffffffffffffffffffffffffffffff1614610108576040517f08c379a00000000000000000000000000000000000000000000000000000000081526004016100ff90610239565b60405180910390fd5b600354421161014c576040517f08c379a0000000000000000000000000000000000000000000000000000000008152600401610143906102cb565b60405180910390fd5b600260009054906101000a900473ffffffffffffffffffffffffffffffffffffffff1673ffffffffffffffffffffffffffffffffffffffff16ff5b60015481565b346001600082825461019f919061031a565b92505081905550565b6000819050919050565b6101bb816101a8565b82525050565b60006020820190506101d660008301846101b2565b92915050565b600082825260208201905092915050565b7f596f7520617265206e6f7420746865206f776e65722100000000000000000000600082015250565b60006102236016836101dc565b915061022e826101ed565b602082019050919050565b6000602082019050818103600083015261025281610216565b9050919050565b7f4e6f7420656e6f7567682074696d65206861732070617373656420746f20776960008201527f7468647261772074686520646f6e6174696f6e73000000000000000000000000602082015250565b60006102b56034836101dc565b91506102c082610259565b604082019050919050565b600060208201905081810360008301526102e4816102a8565b9050919050565b7f4e487b7100000000000000000000000000000000000000000000000000000000600052601160045260246000fd5b6000610325826101a8565b9150610330836101a8565b9250827fffffffffffffffffffffffffffffffffffffffffffffffffffffffffffffffff03821115610365576103646102eb565b5b82820190509291505056fea26469706673582212205e13768ce74a68f1ad61de205f22e06a1bc42b23337aec73004c1b2f2ac65f2e64736f6c634300080e0033",
  "immutableReferences": {},
  "source": "// SPDX-License-Identifier: GPL-3.0\n\npragma solidity >=0.7.0 <0.9.0;\n\ncontract PiggyBank {\n\n    uint minimumTimeWithdrawal = 1 minutes;\n\n    uint public piggy;\n    address payable owner;\n    uint256 deadline;\n\n    constructor() {\n        owner = payable(address(msg.sender));\n        deadline = block.timestamp + minimumTimeWithdrawal;\n    }\n\n    modifier onlyOwner {\n        require(owner == msg.sender, \"You are not the owner!\");\n        _;\n    }\n\n    function payMe() public payable{\n        piggy += msg.value;\n    }\n\n    function breakPiggyBank() public payable onlyOwner{\n        require(block.timestamp > deadline, \"Not enough time has passed to withdraw the donations\");\n        selfdestruct(owner);\n    }\n}",
  "sourcePath": "/Users/jeangatt/Documents/Learning/Smart-Contracts/eSkills-Blockchain-Course/smart-contract-coding-truffle-starter/backend/contracts/PiggyBank.sol",
  "compiler": {
    "name": "solc",
    "version": "0.8.14+commit.80d49f37.Emscripten.clang"
  },
  "schemaVersion": "3.4.7",
  "updatedAt": "2022-06-11T09:40:25.920Z",
  "networkType": "ethereum",
  "devdoc": {
    "kind": "dev",
    "methods": {},
    "version": 1
  },
  "userdoc": {
    "kind": "user",
    "methods": {},
    "version": 1
  }
}