{
  "contractName": "Test",
  "abi": [
    {
      "inputs": [],
      "name": "v",
      "outputs": [
        {
          "internalType": "uint256",
          "name": "",
          "type": "uint256"
        }
      ],
      "stateMutability": "view",
      "type": "function",
      "constant": true
    },
    {
      "inputs": [],
      "name": "ret",
      "outputs": [
        {
          "internalType": "uint256",
          "name": "",
          "type": "uint256"
        }
      ],
      "stateMutability": "view",
      "type": "function",
      "constant": true
    }
  ],
  "bytecode": "0x608060405234801561001057600080fd5b5060e08061001f6000396000f3fe6080604052348015600f57600080fd5b506004361060325760003560e01c80631b08d96f1460375780637c2efcba146051575b600080fd5b603d606b565b604051604891906091565b60405180910390f35b60576074565b604051606291906091565b60405180910390f35b60008054905090565b60005481565b6000819050919050565b608b81607a565b82525050565b600060208201905060a460008301846084565b9291505056fea264697066735822122014e57969104faf48ce630e8ab14e4c2d52dfbfa43ef0503fe00420167e55ef6364736f6c634300080e0033",
  "immutableReferences": {},
  "source": "pragma solidity ^0.8.0;\n\ncontract Test {\n\n  uint public v;\n  uint private x;\n\n  function ret() public view returns(uint){\n    return v;\n  }\n\n  function retX() private view returns(uint){\n    return x;\n  }\n}",
  "sourcePath": "/Users/jeangatt/Documents/Learning/Smart-Contracts/eSkills-Blockchain-Course/smart-contract-coding-truffle-starter/backend/contracts/Test.sol",
  "compiler": {
    "name": "solc",
    "version": "0.8.14+commit.80d49f37.Emscripten.clang"
  },
  "schemaVersion": "3.4.7",
  "updatedAt": "2022-06-11T12:41:33.436Z",
  "networkType": "ethereum",
  "devdoc": {
    "kind": "dev",
    "methods": {},
    "version": 1
  },
  "userdoc": {
    "kind": "user",
    "methods": {},
    "version": 1
  }
}